{
  "_format": "hh-sol-artifact-1",
  "contractName": "Factory",
  "sourceName": "contracts/Factory.sol",
  "abi": [
    {
      "inputs": [
        {
          "internalType": "address",
          "name": "_masterContract",
          "type": "address"
        }
      ],
      "stateMutability": "nonpayable",
      "type": "constructor"
    },
    {
      "inputs": [
        {
          "internalType": "uint256",
          "name": "",
          "type": "uint256"
        }
      ],
      "name": "children",
      "outputs": [
        {
          "internalType": "contract Child",
          "name": "",
          "type": "address"
        }
      ],
      "stateMutability": "view",
      "type": "function"
    },
    {
      "inputs": [
        {
          "internalType": "uint256",
          "name": "data",
          "type": "uint256"
        }
      ],
      "name": "createChild",
      "outputs": [],
      "stateMutability": "nonpayable",
      "type": "function"
    },
    {
      "inputs": [],
      "name": "getChildren",
      "outputs": [
        {
          "internalType": "contract Child[]",
          "name": "",
          "type": "address[]"
        }
      ],
      "stateMutability": "view",
      "type": "function"
    }
  ],
  "bytecode": "0x608060405234801561001057600080fd5b506040516106043803806106048339818101604052810190610032919061008e565b80600160006101000a81548173ffffffffffffffffffffffffffffffffffffffff021916908373ffffffffffffffffffffffffffffffffffffffff16021790555050610100565b600081519050610088816100e9565b92915050565b6000602082840312156100a057600080fd5b60006100ae84828501610079565b91505092915050565b60006100c2826100c9565b9050919050565b600073ffffffffffffffffffffffffffffffffffffffff82169050919050565b6100f2816100b7565b81146100fd57600080fd5b50565b6104f58061010f6000396000f3fe608060405234801561001057600080fd5b50600436106100415760003560e01c80630419eca5146100465780634892e8e8146100625780637002ce4214610080575b600080fd5b610060600480360381019061005b91906102fd565b6100b0565b005b61006a6101b1565b60405161007791906103c9565b60405180910390f35b61009a600480360381019061009591906102fd565b61023f565b6040516100a791906103eb565b60405180910390f35b60006100dd600160009054906101000a900473ffffffffffffffffffffffffffffffffffffffff1661027e565b90508073ffffffffffffffffffffffffffffffffffffffff1663b7b0422d836040518263ffffffff1660e01b81526004016101189190610406565b600060405180830381600087803b15801561013257600080fd5b505af1158015610146573d6000803e3d6000fd5b505050506000819080600181540180825580915050600190039060005260206000200160009091909190916101000a81548173ffffffffffffffffffffffffffffffffffffffff021916908373ffffffffffffffffffffffffffffffffffffffff1602179055505050565b6060600080548060200260200160405190810160405280929190818152602001828054801561023557602002820191906000526020600020905b8160009054906101000a900473ffffffffffffffffffffffffffffffffffffffff1673ffffffffffffffffffffffffffffffffffffffff16815260200190600101908083116101eb575b5050505050905090565b6000818154811061024f57600080fd5b906000526020600020016000915054906101000a900473ffffffffffffffffffffffffffffffffffffffff1681565b6000808260601b90506040517f3d602d80600a3d3981f3363d3d373d3d3d363d7300000000000000000000000081528160148201527f5af43d82803e903d91602b57fd5bf3000000000000000000000000000000000060288201526037816000f092505050919050565b6000813590506102f7816104a8565b92915050565b60006020828403121561030f57600080fd5b600061031d848285016102e8565b91505092915050565b6000610332838361039c565b60208301905092915050565b600061034982610431565b6103538185610449565b935061035e83610421565b8060005b8381101561038f5781516103768882610326565b97506103818361043c565b925050600181019050610362565b5085935050505092915050565b6103a581610484565b82525050565b6103b481610484565b82525050565b6103c38161047a565b82525050565b600060208201905081810360008301526103e3818461033e565b905092915050565b600060208201905061040060008301846103ab565b92915050565b600060208201905061041b60008301846103ba565b92915050565b6000819050602082019050919050565b600081519050919050565b6000602082019050919050565b600082825260208201905092915050565b600073ffffffffffffffffffffffffffffffffffffffff82169050919050565b6000819050919050565b600061048f82610496565b9050919050565b60006104a18261045a565b9050919050565b6104b18161047a565b81146104bc57600080fd5b5056fea2646970667358221220db285eb187e590e2f4ba6c53fc8d1f973f07d34beebab2f664a0c6eaa619312b64736f6c63430008040033",
  "linkReferences": {},
  "deployedLinkReferences": {}
}